:020000040800F2
:1000000000000220B9020008C1020008C502000871
:10001000390300083D0300088503000800000000C4
:10002000000000000000000000000000CD030008F8
:10003000D103000800000000D5030008B514000833
:10004000E9030008E9030008E9030008E9030008E0
:10005000E9030008E9030008E9030008E9030008D0
:10006000E9030008E9030008E9030008E9030008C0
:10007000E9030008E9030008E9030008E9030008B0
:10008000E9030008E9030008E9030008E9030008A0
:10009000E9030008E9030008E9030008E903000890
:1000A000E9030008E9030008E9030008E903000880
:1000B000E9030008E9030008E9030008E903000870
:1000C000E9030008E9030008E9030008E903000860
:1000D000E9030008E9030008E9030008E903000850
:1000E000E9030008E9030008E9030008E903000840
:1000F000E9030008E9030008E9030008E903000830
:10010000E9030008E9030008E9030008E90300081F
:10011000E9030008E9030008E9030008E90300080F
:10012000E9030008E9030008E9030008E9030008FF
:10013000E9030008E9030008E9030008E9030008EF
:10014000E9030008E9030008E9030008E9030008DF
:10015000E9030008E9030008E9030008E9030008CF
:10016000E9030008E9030008E9030008E9030008BF
:10017000E9030008E9030008E903000800000000A3
:10018000E9030008E903000800B583B001F03CF87A
:10019000384B394A1360394A136039490CE00A6810
:1001A0004B6801F10C04886803E01168196004339E
:1001B00004329842F9D82146324B9942EFD32E4B64
:1001C0001A68314B9A4204D12C4B1A682F4B9A4231
:1001D00000D0FEE7274B2E4A13602E4A13602E4BA9
:1001E0000AE0194651F8082B5B6802E00020106015
:1001F00004329A42FAD30B46284A9342F1D3244B55
:100200001B6813B9234B1B6803B1FEE701F0A6F985
:10021000694601A800F060FF214C224B1C1BA41072
:10022000002504E01E4B53F8253098470135AC42B9
:10023000F8DC1D4C1D4B1C1BA410002504E01A4BC0
:1002400053F8253098470135AC42F8DC0099019805
:1002500001F09EF90546164C164B1C1BA41004E039
:10026000013C134B53F824309847002CF8DC284607
:1002700000F004FFBABADECA0000002074000020BB
:10028000EC030008040400087856341232547698BF
:10029000780000201801002004040008140400085D
:1002A00014040008140400081404000814040008CE
:1002B000140400081404000808B5FFF765FF00BF28
:1002C00000BEFEE71EF0040F0CBFEFF30880EFF353
:1002D00009807146414A10472DE9F04182B0044639
:1002E0008846134B5E6B9F6B9D6A1B6B13F0020F6E
:1002F0000DD00F4BDB6A002B09DA4BF6AB6101F036
:1003000007F820B14FF00042094BDA620CE00948CF
:1003100000F01CFFCDF800803B46324629462046BF
:1003200000F07EFF00BEFEE702B0BDE8F08100BF36
:1003300000ED00E0E029000800BEFEE71EF0040F1B
:100340000CBFEFF30880EFF309807146244A104791
:100350002DE9F04182B004468846084B5E6B9F6BE6
:100360009D6A074800F0F2FECDF800803B46324619
:100370002946204600F054FF00BEFEE700ED00E0F5
:10038000F02900081EF0040F0CBFEFF30880EFF314
:1003900009807146134A10472DE9F04182B00446A6
:1003A0008846084B5E6B9F6B9D6A074800F0CEFE47
:1003B000CDF800803B4632462946204600F030FF0B
:1003C00000BEFEE700ED00E0FC29000800BEFEE7ED
:1003D00000BEFEE700BEFEE770470000D90200083D
:0C03E000510300089903000800BEFEE76E
:1003EC00242B00080000002078000020242B00089B
:1003FC000000001000000010780000201C010020FC
:08040C000000001000000010C8
:1004200010B50446074B1B680748A0FB0330800942
:1004300000F094F8002221464FF0FF3000F04CF815
:10044000002010BD0C000020D34D621008B50B4BEE
:100450001A6842F400721A601A6842F480621A60E4
:100460001A6842F480721A60032000F017F80F2017
:10047000FFF7D6FF01F0D2F8002008BD003C024093
:10048000024A136801331360704700BF0C0100205B
:10049000014B1868704700BF0C01002010B50446DE
:1004A000C31E042B03D9A421094800F045FE094AC4
:1004B000D36823F4E0631B041B0C240204F4E064FF
:1004C000234343F0BF6343F40033D36010BD00BF48
:1004D0007427000800ED00E070B504460E4615468E
:1004E0000F2A03D9BC211A4800F026FE0F2E03D98B
:1004F000BD21174800F020FE164BDA68C2F3022235
:10050000C2F10701042928BF0421131D062B01D9BC
:10051000033A00E00022012303FA01F101393140DE
:10052000914003FA02F2013A2A400A43002C06DA0B
:1005300004F00F041201D2B2074B1A5570BD12011C
:10054000D2B204F1604404F5614484F8002370BD24
:100550007427000800ED00E014ED00E00138B0F170
:10056000807F0AD2064B5860F021064A82F8231099
:100570000020986007221A6070470120704700BF72
:1005800010E000E000ED00E010B50446042805D0BE
:1005900020B140F2B311084800F0CEFD042C05D183
:1005A000064A136843F00403136010BD034A13683E
:1005B00023F00403136010BD7427000810E000E06E
:1005C0002DE9F04782B080460F46A44B984223D0D5
:1005D00003F5806398421FD003F5806398421BD0D7
:1005E00003F58063984217D003F58063984213D0D7
:1005F00003F5806398420FD003F5806398420BD0D7
:1006000003F58063984207D003F58063984203D0D6
:10061000C521934800F090FD3B881BB9C621904846
:1006200000F08AFD7B68012B22D9112B20D0022BF0
:100630001ED0122B1CD08B4A934219D002F5801287
:10064000934215D002F58012934211D0A2F5F81210
:1006500093420DD002F58012934209D002F5801228
:10066000934205D0032B03D0C7217D4800F064FDE1
:10067000BB68022B03D9C821794800F05DFD002535
:100680002CE10124AC403E682640B44240F0258174
:100690007B68022B01D0122B4AD13B69C3B3092BD3
:1006A00036D0ABB3A3B39BB393B3012B30D02FD0D1
:1006B000022B2DD02CD02BD0032B29D0042B27D0CC
:1006C00026D025D0052B23D022D0092B20D0062BD5
:1006D0001ED0092B1CD0072B1AD019D018D0082BEC
:1006E00016D015D014D0092B12D011D00A2B0FD050
:1006F0000ED00B2B0CD00C2B0AD009D00D2B07D011
:100700000C2B05D00F2B03D0D921554800F014FD38
:10071000EA08083258F8220005F0070399000F2371
:100720008B4020EA03003B698B40034348F82230AA
:10073000D8F800304FEA450A4FF0030909FA0AF9E0
:100740006FEA090903EA09027B6803F0030303FA6D
:100750000AF31343C8F800307B685A1E012A03D9F4
:10076000112B01D0122B1BD1FB68032B03D9EC21D9
:100770003B4800F0E1FCD8F8083009EA0302FB68C6
:1007800003FA0AF31343C8F80830D8F8043023EA10
:1007900004047B68C3F30013AB401C43C8F8044057
:1007A000D8F80C3009EA0309BB6803FA0AF349EAEE
:1007B0000303C8F80C307B6813F0805F00F08D8075
:1007C00000230193284B5A6C42F480425A645B6CBC
:1007D00003F480430193019BA9088A1C234B53F81F
:1007E000220005F003039B000F229A4020EA02003A
:1007F0001A4A904521D002F5806290451FD002F53B
:10080000806290451DD002F5806290451BD002F5B4
:100810008062904519D002F58062904517D002F5AC
:100820008062904515D002F58062904513D002F5A4
:10083000806290451CD108221BE0002219E00122B1
:1008400017E0022215E0032213E0042211E0052242
:100850000FE006220DE007220BE000BF000002407F
:10086000A82700080000111000380240003801409D
:10087000092202FA03F3034302311B4A42F82130F2
:100880001A4B1A68F34302EA0301786810F4803FB8
:1008900001D046EA0201154A1160526803EA0201DA
:1008A000786810F4003F01D046EA02010F4A516017
:1008B000926803EA0201786810F4801F01D046EACA
:1008C00002010A4A9160D2681340796811F4001F4E
:1008D00001D046EA0203054AD36001350F2D7FF6A9
:1008E000D0AE02B0BDE8F08700380140003C0140C6
:1008F00070B5064615460C4621B940F2B1110848BC
:1009000000F01AFC012D04D94FF4D971044800F00D
:1009100013FC0DB1B46170BD2404B46170BD00BF9F
:10092000A827000830B583B0044603680F2B03D90D
:10093000F5219C4800F000FC236813F0010F45D01E
:100940006368012B05D9052B03D0FA21954800F0E7
:10095000F3FB954B9B6803F00C03042B0AD0924BDE
:100960009B6803F00C03082B0CD18F4B5B6813F4CE
:10097000800F07D08C4B1B6813F4003F26D06368B0
:1009800023BBCCE12279894B1A7063687BB1FFF7F6
:100990007FFD054605E0FFF77BFD401B642800F264
:1009A000C081814B1B6813F4003FF4D00EE0FFF7C9
:1009B0006FFD054605E0FFF76BFD401B642800F264
:1009C000B281794B1B6813F4003FF4D1236813F014
:1009D000020F6AD0E368012B04D94FF49671714875
:1009E00000F0AAFB23691F2B04D940F22D116D489A
:1009F00000F0A2FB6C4B9B6813F00C0F0AD06A4B03
:100A00009B6803F00C03082B1BD1674B5B6813F446
:100A1000800F16D1644B1B6813F0020F03D0E368FC
:100A2000012B40F082816048036823F0F8012369BC
:100A3000F82292FAA2F2B2FA82F293400B430360D8
:100A400033E0E368FBB10122594B1A60FFF720FD48
:100A5000054605E0FFF71CFD401B022800F26781F8
:100A6000514B1B6813F0020FF4D04F48036823F07A
:100A7000F8012369F82292FAA2F2B2FA82F29340C4
:100A80000B43036011E00022494B1A60FFF700FDA1
:100A9000054605E0FFF7FCFC401B022800F24981F7
:100AA000414B1B6813F0020FF4D1236813F0080FB9
:100AB0002ED06369012B04D940F26D11394800F042
:100AC0003BFB636993B101223A4B1A60FFF7E0FCEC
:100AD000054605E0FFF7DCFC401B022800F22B81F5
:100AE000314B5B6F13F0020FF4D011E00022314B59
:100AF0001A60FFF7CDFC054605E0FFF7C9FC401B77
:100B0000022800F21A81284B5B6F13F0020FF4D118
:100B1000236813F0040F60D0A368012B06D9052BBE
:100B200004D040F297111F4800F006FB0023019308
:100B30001D4B1A6C42F080521A641B6C03F08053F8
:100B40000193019B1C4A136843F480731360FFF701
:100B50009FFC054605E0FFF79BFC401B022800F2C6
:100B6000EE80154B1B6813F4807FF4D0227A134B70
:100B70001A70A3688BB1FFF78BFC054607E0FFF7FF
:100B800087FC401B41F28833984200F2DA80064B22
:100B90001B6F13F0020FF2D01FE0FFF779FC054640
:100BA00016E000BFE8270008003802400238024083
:100BB00000004742800E47420070004070380240FB
:100BC000FFF766FC401B41F28833984200F2BB807D
:100BD000634B1B6F13F0020FF2D1A369022B04D9F0
:100BE0004FF4E6715F4800F0A7FAA369002B00F00C
:100BF000AC805B4A926802F00C02082A00F0A780E1
:100C0000022B79D1E3693BB1B3F5800F04D040F2F8
:100C1000D511544800F090FA236A3F2B04D94FF4C1
:100C2000EB71504800F088FA636A323BB3F5BF7F3E
:100C300004D940F2D7114B4800F07EFAA36A022B88
:100C40000AD0042B08D0062B06D0082B04D04FF472
:100C5000EC71444800F070FAE36A043B0B2B04D9B2
:100C600040F2D9113F4800F067FA00223E4B1A606B
:100C7000FFF70EFC054604E0FFF70AFC401B0228C4
:100C800067D8374B1B6813F0007FF5D1E169236A01
:100C90001943636A47F6C07292FAA2F2B2FA82F27C
:100CA00093401943A36A5B085A1E4FF4403393FAEA
:100CB000A3F3B3FA83F302FA03F30B43E26A4FF0B0
:100CC000706191FAA1F1B1FA81F18A401343244A8B
:100CD00053600122244B1A60FFF7DAFB044604E05C
:100CE000FFF7D6FB001B022835D81D4B1B6813F0FD
:100CF000007FF5D0002031E000221B4B1A60FFF787
:100D0000C7FB044604E0FFF7C3FB001B022824D8FE
:100D1000134B1B6813F0007FF5D100201EE001206B
:100D20001CE003201AE0032018E0012016E0032055
:100D300014E0032012E0032010E003200EE0032063
:100D40000CE003200AE0032008E0002006E0012078
:100D500004E0032002E0032000E0032003B030BDE4
:100D600000380240E827000860004742244B9B6897
:100D700003F00C03042B3FD0082B01D0214870470F
:100D800010B41F4B586800F03F005B6813F4800FED
:100D900010D01D4BB3FBF0F0194B5A6847F6C071E9
:100DA0000A4091FAA1F3B3FA83F322FA03F303FBA7
:100DB00000F310E0134BB3FBF0F0114B5A6847F609
:100DC000C07402EA040194FAA4F2B2FA82F221FA9F
:100DD00002F202FB00F30A4A506800F440324FF47A
:100DE000403090FAA0F0B0FA80F022FA00F0013022
:100DF0004000B3FBF0F001E00348704710BC7047BF
:100E0000003802400024F40000127A0070B5044655
:100E10000D460368013B0E2B04D940F237218F4861
:100E200000F08AF9072D04D94FF40E718B4800F0B9
:100E300083F98B4B1B6803F00F039D4208D9EBB27B
:100E4000874A1370136803F00F039D4240F0F4804B
:100E5000236813F0020F1DD0A368A3B1802B12D01A
:100E6000902B10D0A02B0ED0B02B0CD0C02B0AD0C2
:100E7000D02B08D0E02B06D0F02B04D040F24F212D
:100E8000764800F059F977498B6823F0F002A3689F
:100E900013438B60236813F0010F6BD06368032B3F
:100EA00004D940F256216D4800F046F96268012AE3
:100EB00005D16C4B1B6813F4003F0FD1BEE0931EAD
:100EC000012B05D8674B1B6813F0007F06D1B7E0F4
:100ED000644B1B6813F0020F00F0B48061498B680B
:100EE00023F0030313438B60FFF7D2FA06466368CF
:100EF000012B0FD107E0FFF7CBFA801B41F28833BB
:100F0000984200F2A180574B9B6803F00C03042B1E
:100F1000F1D12FE0022B0FD107E0FFF7B9FA801BC8
:100F200041F28833984200F291804E4B9B6803F067
:100F30000C03082BF1D11DE0032B16D107E0FFF7BE
:100F4000A7FA801B41F28833984200F28180454B1A
:100F50009B6803F00C030C2BF1D10BE0FFF798FA20
:100F6000801B41F28833984274D83E4B9B6813F043
:100F70000C0FF3D13A4B1B6803F00F039D4207D2CD
:100F8000EAB2374B1A701B6803F00F039D4263D11E
:100F9000236813F0040F19D0E36883B1B3F5805FC1
:100FA0000DD0B3F5A05F0AD0B3F5C05F07D0B3F59D
:100FB000E05F04D04FF42D71284800F0BDF82949B6
:100FC0008B6823F4E052E36813438B60236813F0CB
:100FD000080F1AD0236983B1B3F5805F0DD0B3F544
:100FE000A05F0AD0B3F5C05F07D0B3F5E05F04D0CF
:100FF00040F2BB21194800F09FF81A4A936823F485
:101000006043216943EAC1039360FFF7AFFE154BCC
:101010009B6803F0F002F02393FAA3F3B3FA83F38F
:1010200022FA03F3104AD35CD840104B18600F200B
:10103000FFF7F6F9002070BD012070BD012070BDE2
:10104000012070BD012070BD032070BD032070BD64
:10105000032070BD032070BD012070BDE82700088B
:10106000003C024000380240D82700080C00002055
:10107000014B1868704700BF0C000020FEE700BF5E
:1010800008B5034800F07AF80120FFF7F7FF00BF2A
:101090001828000808B50D4B1B6813B90C4A0B4BF8
:1010A0001A600A4B1A68C31C23F00303134409494E
:1010B0008B4206D900F0B4FA0C2303604FF0FF30E6
:1010C00008BD02490B60104608BD00BF7C0000202F
:1010D0001C01002000FC012001230360014B0B6078
:1010E000704700BF0400002008B500F099FA5823AB
:1010F00003604FF0FF3008BD08B500F091FA5823A7
:1011000003604FF0FF3008BD08B500F089FA58239E
:101110000360002008BD00BF08B500F081FA582325
:1011200003604FF0FF3008BD08B500F079FA58238E
:1011300003604FF0FF3008BD08B50A46014602487B
:1011400000F004F8FFF79CFF6C2800080FB400B50E
:1011500083B004AB53F8042B01938021064800F0C0
:1011600057FB002803DD0146034800F049F803B0AF
:101170005DF804EB04B070478400002010B504460D
:1011800000F012FB0146204600F03AF80121024827
:1011900000F036F810BD00BF5C2900082DE9F043CF
:1011A00085B004460F46435613BB04252846214606
:1011B000ABBE04461FE03546102E28BF1025002385
:1011C00006E014F9011B04AA1A4402F8101C0133AA
:1011D000AB42F6D304AA1344002203F8102CE946CC
:1011E0004FF0040840464946ABBE8046761B00E0FF
:1011F0000E46002EDFD1384605B0BDE8F08300BFB3
:1012000008B5FFF7CBFF08BD08B500F091F8024B19
:10121000024A9A6008BD00BF00ED00E0000000082F
:10122000F8B504460D4617461E462648FFF78EFFC2
:1012300021682548FFF78AFF61682448FFF786FF89
:10124000A1682348FFF782FFE1682248FFF77EFF8D
:1012500021692148FFF77AFF61692048FFF776FF8F
:10126000A1691F48FFF772FFE1691E48FFF76EFF93
:101270001D48FFF76BFF29461C48FFF767FF1C4C12
:10128000E16A1C48FFF762FF216B1B48FFF75EFF16
:10129000E16B1A48FFF75AFF15F0800F03D039466B
:1012A0001748FFF753FF15F4004F03D03146154898
:1012B000FFF74CFF1448FFF749FF06991348FFF763
:1012C00045FFF8BDC4280008D4280008E428000819
:1012D000F42800080429000814290008242900081B
:1012E000342900084429000854290008602900080E
:1012F00000ED00E07029000880290008902900080E
:10130000A0290008B0290008C0290008C829000841
:1013100083691A888A4207D10268033A012A05D8EC
:10132000023383610120704700207047002070471E
:101330000C4B1A6842F001021A60002199601A6889
:1013400022F0847222F480321A60074A5A601A68C6
:1013500022F480221A60D9604FF00062034B9A6039
:10136000704700BF003802401030002400ED00E05C
:10137000224B9B6803F00C03042B07D0082B09D0E9
:10138000002B2DD11E4A1F4B1A602CE01E4A1D4B0C
:101390001A6028E0194B5A685B6803F03F0312F4A7
:1013A000800F09D0184AB2FBF3F2144B5B68C3F309
:1013B000881303FB02F208E0114AB2FBF3F30F4A71
:1013C0005168C1F3881101FB03F20C4B5B68C3F356
:1013D000014301335B00B2FBF3F30A4A136002E0FE
:1013E000074A084B1A60054B9B68C3F30313074A6F
:1013F000D15C044A1368CB40136070470038024048
:101400000024F4000C00002000127A000C2A0008CE
:1014100030B587B00C4A136B43F0080313634FF4E5
:101420008055019501230293022204920393074CF5
:1014300001A92046FFF7C4F8002229462046FFF7FD
:1014400057FA07B030BD00BF00380240000C024020
:101450000A4B1B680A4AA2FB03239B09013BB3F119
:10146000807F09D2074A5360F021074B83F823108D
:101470000023936007231360704700BF0C00002017
:10148000D34D621010E000E000ED00E0034B186067
:10149000024B1B68002BFBD1704700BF14010020DA
:1014A000034B1B681BB1024A1368013B1360704772
:1014B0001401002008B5FEF7E3FFFFF7F1FF08BDB8
:1014C00030B595B000240194214B1A6C42F0805243
:1014D0001A641B6C03F080530193019B02941D4B13
:1014E0001A6842F480421A601B6803F48043029336
:1014F000029B0123089309934FF480030F93082361
:1015000010934FF4A8731193022512950723139398
:101510000E9508A8FFF706FA0F2303930495059488
:101520004FF4A05306934FF480530793052103A86B
:10153000FFF76CFCFFF79CFD074BA3FB0030800915
:10154000FFF70CF80420FFF71FF815B030BD00BFFF
:101550000038024000700040D34D621008B5FEF71D
:1015600075FFFFF7ADFFFFF703FF08BD08B50138B2
:10157000012805D80B4611461846FFF741FE08BD65
:1015800000F04EF8582303604FF0FF3008BD00BF55
:1015900010B51A48FFF7F2FD194800F0FDF8194B95
:1015A0001B68DB6818220121174800F08DF8174BE3
:1015B00019681748FFF7CAFDFFF74AFFFFF728FF32
:1015C000002401224FF480511248FFF791F914B919
:1015D0004FF47A7001E040F2EE20FFF757FF00224F
:1015E0004FF480510B48FFF783F9FA20FFF74EFFC5
:1015F000013421460848FFF7A9FDE2E71C2A00084C
:10160000302A0008700000204C2A00080C0000203E
:10161000682A0008000C0240802A0008704700BFBA
:10162000014B1868704700BF700000202DE9F84397
:10163000089C8946174602FB03F8064618B18369E1
:101640000BB900F0A7FA1D4B9C4201D1746808E069
:101650001B4B9C4201D1B46803E01A4B9C4208BF6B
:10166000F468A3891B0703D523690BB1002513E098
:101670002146304600F02EF90028F7D0002519E069
:10168000A36819F80510013B002BA36007DB236852
:101690005A1C2260197001354545F1D10AE0A26952
:1016A000934201DB0A29F2D12246304600F0BEF80F
:1016B0000130F0D1B5FBF7F0BDE8F883902A0008BF
:1016C000B02A0008D02A000807B5009313460A463E
:1016D000014603480068FFF7A9FF03B05DF804FB6B
:1016E0007000002070B50E46054618B183690BB92D
:1016F00000F050FAAB69AC6813B9284600F04AFA1A
:10170000224B9C4201D16C6808E0214B9C4201D1E4
:10171000AC6803E01F4B9C4208BFEC68A3891B0721
:1017200001D523693BB92146284600F0D3F810B112
:101730004FF0FF3070BD013EA36816F8011F013B5A
:10174000A36091B1002B04DAA269934206DB0A2957
:1017500004D023685A1C22601970EDE722462846FF
:1017600000F064F80130E7D1E2E7002B08DA224606
:101770000A21284600F05AF80130D9D00A2070BD5D
:1017800023680A205A1C2260187070BD902A000835
:10179000B02A0008D02A0008024B01461868FFF75B
:1017A000A1BF00BF70000020034613F8012B002AE0
:1017B000FBD1181A0138704730B5141E05469BB08E
:1017C000184604DA8B232B604FF0FF301DE04FF4F6
:1017D0000273ADF80C3014BF04F1FF3323460293BB
:1017E00005934FF6FF7300910491ADF80E30024659
:1017F0001E9B6946284600F0C5FB431CBCBF8B23DB
:101800002B6014B1009B00221A701BB030BD000089
:1018100007B5009313460A46014603480068FFF7E0
:10182000CBFF03B05DF804FB70000020F8B50F4655
:101830001446054618B183690BB900F0ABF9224B89
:101840009C4201D16C6808E0204B9C4201D1AC68FD
:1018500003E01F4B9C4208BFEC68A369A360A38907
:101860001A0709D523693BB123682069181A6369EF
:101870009842FEB20FDB08E02146284600F02AF825
:101880000028F1D04FF0FF361BE02146284600F03B
:1018900017F90028F6D1A368013BA36023685A1CFE
:1018A00022601F7063690130984204D0A389DB076E
:1018B00007D50A2E05D12146284600F001F9002857
:1018C000E0D13046F8BD00BF902A0008B02A0008D9
:1018D000D02A0008324B70B51D6806460C4625B16B
:1018E000AB6913B9284600F055F92E4B9C4201D143
:1018F0006C6808E02C4B9C4201D1AC6803E02B4B98
:101900009C4208BFEC68B4F90C309AB215071DD49C
:10191000D00602D4092232603AE0510712D5616B39
:1019200041B104F14403994202D0304600F024FA58
:1019300000236363A38923F02403A381002363604E
:1019400023692360A38943F00803A38123694BB96A
:10195000A38903F42073B3F5007F03D021463046FA
:1019600000F0C6F9A28912F0010305D00023A3609C
:1019700063695B42A36103E0920758BF6369A36098
:1019800023695BB9B4F90C3003F0800080B230B148
:1019900043F04003A3814FF0FF3070BD002070BDC5
:1019A00070000020902A0008B02A0008D02A000801
:1019B0008A892DE9F041054610070C4659D44B6839
:1019C000002B02DC0B6C002B17DDE66AAEB102F4D3
:1019D0008052002392B22F682B600AB1606D15E02F
:1019E000216A01232846B047411C0FD12B686BB1F7
:1019F0001D2B01D0162B03D12F600020BDE8F081F4
:101A0000A38943F04003A381BDE8F081A3895A076D
:101A100005D56368C01A636B0BB1236CC01A002331
:101A20000246E66A216A2846B047431CA38906D1CC
:101A300029681D293AD8214ACA40D60736D500223E
:101A40006260D9042269226004D5421C01D12B684E
:101A500003B96065616B2F600029CED004F14403A7
:101A6000994202D0284600F087F900206063BDE863
:101A7000F0810F69002FC0D093070E6808BF4B6933
:101A80000F6018BF0023C7EB06088B6002E0074415
:101A9000C0EB0808B8F1000FAFDD43463A46216AB3
:101AA000A66A2846B0470028F1DCA38943F040032A
:101AB000A3814FF0FF30BDE8F08100BF010040205E
:101AC00038B50B6905460C46DBB118B183690BB913
:101AD00000F060F80C4B9C4201D16C6808E00B4BA5
:101AE0009C4201D1AC6803E0094B9C4208BFEC6802
:101AF000B4F90C302BB121462846BDE83840FFF739
:101B000057BF002038BD00BF902A0008B02A000847
:101B1000D02A0008014900F0A9B800BFC11A000886
:101B2000002310B5044603604360836081814366EF
:101B3000C281036143618361194608225C3000F071
:101B400013F9054B6362054BA362054BE362054B3A
:101B50002462236310BD00BFC5240008E7240008E9
:101B60001F2500084325000870B568234D1E5D43FE
:101B70000E4605F1740100F04DF9044640B1002114
:101B800080E842000C30A06005F1680200F0ECF83B
:101B9000204670BD836910B5044633BB8364C364BB
:101BA0000365124B124A1B688262984204BF0123EC
:101BB000836100F01FF86060204600F01BF8A06011
:101BC000204600F017F80022E06004216068FFF76B
:101BD000A7FF01220921A068FFF7A2FF022212211C
:101BE000E068FFF79DFF0123A36110BD8C2A000868
:101BF000151B0008F8B51C4B1E68B369074613B9DE
:101C00003046FFF7C7FF4836B4687368013B04D419
:101C1000B4F90C507DB16834F8E733680BB136681D
:101C2000F2E704213846FFF79FFF30600028F6D125
:101C30000C233B60F8BD4FF6FF73E3810123A381C2
:101C400065662560A560656025616561A5610822FE
:101C5000294604F15C0000F087F86563A563A5647C
:101C6000E5642046F8BD00BF8C2A00082DE9F84342
:101C70008046894600F14804002694B1A56867684B
:101C8000013F0CD4AB89012B07D9B5F90E300133D4
:101C900003D029464046C84706436835F0E7246824
:101CA000EBE73046BDE8F88370B50E46B1F90E108B
:101CB000002990B014461D4606DA00232B60B38934
:101CC0001A060ED540230EE001AA00F061FC0028A0
:101CD000F3DB029A02F47042A2F500535A425A41D1
:101CE0002A604FF480630020236010B070BD0000B4
:101CF0008B8973B59E0705460C4610D401AB6A4626
:101D0000FFF7D2FF00990646284600F083F868B92D
:101D1000B4F90C309A0522D443F00203A38104F1F4
:101D20004703236023610123636118E00D4BAB621D
:101D3000A389206043F08003A381009B6361019B22
:101D400020614BB1B4F90E10284600F033FC18B1F5
:101D5000A38943F00103A381A0893043A08102B08D
:101D600070BD00BF151B000802440346934202D019
:101D700003F8011BFAE7704738B50546002946D03D
:101D800051F8043C0C1F002BB8BFE41800F0AEFC67
:101D90001F4A1368114613B96360146032E0A3420E
:101DA0000ED92268A018834204BF18685B6863607C
:101DB00004BF121822600C6024E0A24203D813462C
:101DC0005A68002AF9D118681918A1420BD1216864
:101DD000014458188242196014D1106852685A6040
:101DE000014419600EE002D90C232B600AE021683F
:101DF0006018824204BF10685268626004BF09180C
:101E000021605C602846BDE8384000F070BC38BDF9
:101E10000801002070B5CD1C25F0030508350C2DF8
:101E200038BF0C25002D064601DBA94202D90C2340
:101E3000336046E000F05AFC234B1C681A462146EA
:101E4000A1B10B685B1B0ED40B2B03D90B60CC1814
:101E5000CD501EE08C420DBF63684B686360136019
:101E600018BF0C4615E00C464968E9E7174C236893
:101E70001BB9304600F016FB20602946304600F0C2
:101E800011FB431C18D0C41C24F00304A0420DD144
:101E90002560304600F02BFC04F10B00231D20F0E0
:101EA0000700C31A0ED05A42E25070BD211A3046C4
:101EB00000F0F8FA0130EBD10C233360304600F02B
:101EC00016FC002070BD00BF0801002004010020A6
:101ED0002DE9F0478E689E4282460C469146984610
:101EE0003ED88A8912F4906F3AD0256809696F1A32
:101EF0006569022305EB450595FBF3F57B1C43441F
:101F00009D4238BF1D4653050FD52946FFF782FF76
:101F1000064698B13A46216900F0C2FBA38923F432
:101F2000906343F08003A38113E02A4600F0E0FBB6
:101F3000064670B921695046FFF71EFF0C23CAF808
:101F40000030A38943F04003A3814FF0FF30BDE888
:101F5000F087266165613E44ED1B2660A56046461C
:101F6000464528BF464632464946206800F0A3FB56
:101F7000A3689B1BA36023681E4426600020BDE865
:101F8000F08700002DE9F04F9DB0804603938B89C8
:101F90001C060D4616460DD50B695BB94021FFF7AF
:101FA00039FF2860286118B90C23C8F80030CDE04B
:101FB00040236B610023099320238DF82930DFF83B
:101FC0009CB130238DF82A3037463C4614F8013B4B
:101FD0001BB9B7EB060910D003E0252BF9D0274633
:101FE000F3E74B46324629464046FFF771FF013082
:101FF00000F0A780099B4B4409933B78002B00F02D
:10200000A08000234FF0FF320493079305920693BC
:102010008DF853301A930126052221784E4800F09E
:10202000EFFA671C049B38B14B4A801A06FA00F09D
:10203000184304903C46EFE7D90644BF20228DF8B0
:1020400053201A0744BF2B228DF8532022782A2AC6
:1020500003D0079A00210A200BE0039A111D126891
:102060000391002A10DA524243F0020007920490D2
:102070000BE0274601343B78303B092B03D800FBAB
:1020800002320121F5E701B107923B782E2B1ED1D8
:102090007B782A2B0AD1039B1A1D1B680392002B05
:1020A000B8BF4FF0FF330237059310E000230593CC
:1020B000781C19460A24074601303A78303A092A32
:1020C00003D804FB01210123F5E703B105910322A5
:1020D0003978224800F094FA40B14023CBEB00005D
:1020E00003FA00F0049B18430490013739781C4828
:1020F0008DF8281006227E1C00F082FA88B1194B58
:1021000033B9039B073323F007030833039314E029
:1021100003AB00932A46144B04A94046AFF300805A
:1021200007E003AB00932A460F4B04A9404600F09A
:1021300093F8B0F1FF3F824603D0099B53440993C3
:1021400042E7AB895B0601D4099801E04FF0FF300C
:102150001DB0BDE8F08F00BFF02A0008F62A000885
:10216000FA2A000800000000D11E00082DE9F047FF
:1021700091461F460A698B68DDF820809342B8BFFC
:102180001346C9F8003091F8432006460C4612B1B8
:102190000133C9F800302368990642BFD9F80030EE
:1021A0000233C9F80030256815F0060510D104F196
:1021B000190A07E00123524639463046C04701302C
:1021C0001AD00135E368D9F800209B1A9D42F1DB53
:1021D00094F843302268003318BF012392060FD5CC
:1021E000E1185A1C302081F84300224494F845102D
:1021F00082F84310023303E04FF0FF30BDE8F08770
:1022000004F1430239463046C0470130F4D0226819
:10221000D9F80050E36802F00602042A08BF5D1BEB
:102220002269A3680CBF25EAE57500259342C4BF67
:102230009B1AED184FF000091A344D4509D00123BF
:10224000224639463046C0470130D5D009F1010950
:10225000F3E70020BDE8F0872DE9F04317460A7E3A
:1022600085B06E2A984606460C460C9B01F1430E3B
:1022700000F0AE8011D8632A22D009D8002A00F0DD
:10228000BB80582A40F0CA8081F84520834955E038
:10229000642A1ED0692A1CD0C0E0732A00F0B080E6
:1022A00009D86F2A2ED0702A40F0B8800A6842F010
:1022B00020020A603EE0752A24D0782A3AD0ADE0A8
:1022C0001A6801F14205111D1960136884F8423043
:1022D000A8E021681A6811F0800F02D0111D196062
:1022E00008E011F0400F02F10401196002D0B2F9C8
:1022F000003000E01368002B3CDA2D225B4284F8AA
:10230000432037E021681A6811F0800F02D0111DB8
:10231000196007E011F0400F02F10401196001D0CB
:10232000138800E01368227E5C496F2A14BF0A22DA
:1023300008221BE078225A4984F845202268186850
:1023400012F0800F00F104051D6003D1550601D580
:10235000038800E00368D00744BF42F020022260F7
:102360001BB9226822F0200222601022002084F88B
:10237000430001E049490A226568A560002D08DB99
:10238000206820F0040020602BB9002D7DD1754617
:102390000CE0002B79D07546B3FBF2F002FB103352
:1023A000CB5C05F8013D03460028F5D1082A0BD186
:1023B0002368DA0708D5236962689A42DEBF3023B2
:1023C00005F8013C05F1FF35C5EB0E0323612EE056
:1023D00008681A68496910F0800F03D0101D186052
:1023E000136808E010F0400F02F104001860136851
:1023F00001D0198000E0196000232361754616E0C2
:102400001A68111D1960156862680021284600F0DD
:10241000F7F808B1401B6060636804E004F142050E
:1024200084F8422001232361002384F84330CDF84F
:1024300000803B4603AA21463046FFF797FE013055
:1024400002D14FF0FF3026E023692A463946304654
:10245000C0470130F5D023689B0710D5002504F153
:10246000190907E001234A4639463046C047013082
:10247000E7D00135E368039A9B1A9D42F2DBE068DE
:10248000039B9842B8BF184605E00B7884F84230A9
:1024900004F142058AE705B0BDE8F083012B00088E
:1024A000122B000838B5064C002305460846236069
:1024B000FEF7F0FD431C02D1236803B12B6038BD49
:1024C0001001002010B50C46B1F90E1000F036F9DD
:1024D0000028ABBF636DA3891B1823F48053ACBFE6
:1024E0006365A38110BD2DE9F0411F468B89DB0593
:1024F00005460C46164605D502230022B1F90E10FA
:1025000000F068F8A389B4F90E1023F48053A38176
:1025100032463B462846BDE8F04100F017B810B5FA
:102520000C46B1F90E1000F055F8431CA38915BFF5
:10253000606523F4805343F48053A38118BFA381C3
:1025400010BDB1F90E1000F013B8000038B5074CFB
:10255000054608461146002222601A46FFF706F893
:10256000431C02D1236803B12B6038BD1001002049
:1025700038B5064C0023054608462360FEF7B4FD37
:10258000431C02D1236803B12B6038BD1001002029
:1025900038B5074C00230546084611462360FEF770
:1025A000ABFD431C02D1236803B12B6038BD00BFD3
:1025B0001001002038B5064C00230546084623606C
:1025C000FEF7A2FD431C02D1236803B12B6038BD86
:1025D0001001002038B5074C054608461146002278
:1025E00022601A46FEF798FD431C02D1236803B10E
:1025F0002B6038BD1001002000000000000000002A
:1026000001F0FF01102A2BDB10F0070F08D010F8A3
:10261000013B013A8B422DD010F0070F42B3F6D1A7
:10262000F0B441EA012141EA014122F007047FF0C0
:1026300000070023F0E80256083C85EA010586EA17
:10264000010685FA47F5A3FA87F586FA47F6A5FA53
:1026500087F68EB9EED1F0BC01F0FF0102F007025F
:1026600032B110F8013B013A83EA010313B1F8D10A
:102670000020704701387047002D06BF35460338EB
:10268000073815F0010F07D1013015F4807F02BF24
:10269000013015F4C03F0130F0BC0138704700BF75
:1026A00010B5431E0A44914204D011F8014B03F8BF
:1026B000014FF8E710BD884210B501EB020301D8C5
:1026C000421E0BE09842FBD28118D21AD34204D0AA
:1026D00013F8014D01F8014DF8E710BD994204D0FF
:1026E00011F8014B02F8014FF8E710BD7047704731
:1026F000F8B5074615460E4621B91146BDE8F84023
:10270000FFF788BB1AB9FFF737FB2846F8BD00F082
:1027100027F885420ED929463846FFF77BFB044649
:1027200050B131462A46FFF7BBFF31463846FFF726
:1027300023FB01E03046F8BD2046F8BD38B5074C14
:10274000054608461146002222601A46FEF7ECFCB8
:10275000431C02D1236803B12B6038BD1001002057
:1027600051F8040C0028BEBF091851F8043CC018E9
:10277000043870472E2E2F73797374656D2F737222
:10278000632F73746D333266342D68616C2F7374EC
:102790006D3332663478785F68616C5F636F727432
:1027A00065782E63000000002E2E2F7379737465F8
:1027B0006D2F7372632F73746D333266342D6861BD
:1027C0006C2F73746D3332663478785F68616C5F38
:1027D0006770696F2E6300000000000001020304AF
:1027E00001020304060708092E2E2F7379737465FE
:1027F0006D2F7372632F73746D333266342D68617D
:102800006C2F73746D3332663478785F68616C5FF7
:102810007263632E6300000061626F727428292C5A
:102820002065786974696E672E2E2E002C206675DF
:102830006E6374696F6E3A20000000006173736507
:102840007274696F6E2022257322206661696C653F
:10285000643A2066696C6520222573222C206C69FD
:102860006E65202564257325730A00006173736506
:1028700072745F706172616D2829206661696C6590
:10288000643A2066696C6520222573222C206C69CD
:102890006E652025640A00006D61696E28617267AB
:1028A000633D25642C20617267763D5B000000006B
:1028B0002C20000022257322000000005D293B0A25
:1028C00000000000537461636B206672616D653AAD
:1028D0000A000000205230203D2020253038580AC0
:1028E00000000000205231203D2020253038580AB9
:1028F00000000000205232203D2020253038580AA8
:1029000000000000205233203D2020253038580A96
:102910000000000020523132203D20253038580A76
:1029200000000000204C52203D2020253038580A5D
:1029300000000000205043203D2020253038580A58
:102940000000000020505352203D20253038580A06
:10295000000000004653522F4641523A0A00000040
:102960002043465352203D2020253038580A00008D
:102970002048465352203D2020253038580A000078
:102980002044465352203D2020253038580A00006C
:102990002041465352203D2020253038580A00005F
:1029A000204D4D464152203D20253038580A000028
:1029B0002042464152203D2020253038580A000050
:1029C0004D6973630A000000204C522F4558435F45
:1029D00052455455524E3D20253038580A000000CB
:1029E0005B486172644661756C745D0A00000000AA
:1029F0005B4275734661756C745D0A005B5573616B
:102A000067654661756C745D0A0000000000000097
:102A100000000000010203040607080948656C6C09
:102A20006F2041524D20576F726C642100000000EE
:102A30005374616E64617264206F75747075742074
:102A40006D6573736167652E000000005374616EDD
:102A500064617264206572726F72206D6573736158
:102A600067652E0A0000000053797374656D20635A
:102A70006C6F636B3A20257520487A0A00000000CD
:102A80005365636F6E642025750A000010000020F6
:102A90000000000000000000000000000000000036
:102AA0000000000000000000000000000000000026
:102AB0000000000000000000000000000000000016
:102AC0000000000000000000000000000000000006
:102AD00000000000000000000000000000000000F6
:102AE00000000000000000000000000000000000E6
:102AF000232D302B2000686C4C00656667454647E7
:102B00000030313233343536373839414243444569
:102B100046003031323334353637383961626364D8
:032B2000656600E7
:102B24007856341280000020000000000024F400D5
:102B340000000000902A0008B02A0008D02A0008EB
:102B44000000000000000000000000000000000081
:102B54000000000000000000000000000000000071
:102B64000000000000000000000000000000000061
:102B74000000000000000000000000000000000051
:102B84000000000000000000000000000000000041
:082B9400100000203254769875
:040000050800018965
:00000001FF
